:020000040000FA
:10000000700200104D010000550100005701000072
:10001000590100005B0100005D01000000000000CC
:100020000000000000000000000000005F01000070
:100030006101000000000000630100006501000094
:100040006701000067010000670100006701000010
:100050006701000067010000670100006701000000
:1000600067010000670100006701000067010000F0
:1000700067010000670100006701000067010000E0
:1000800067010000670100006701000067010000D0
:1000900067010000670100006701000067010000C0
:1000A000670100006701000089010000670100008E
:1000B00067010000670100006701000067010000A0
:1000C00067010000670100006701000000F002F80E
:1000D00000F02DF80AA090E8000C82448344AAF1B5
:1000E0000107DA4501D100F022F8AFF2090EBAE8B3
:1000F0000F0013F0010F18BFFB1A43F0010318475C
:10010000F404000004050000103A24BF78C878C148
:10011000FAD8520724BF30C830C144BF04680C600D
:1001200070471FB500F05EFA1FBD10B510BD00F09E
:1001300029FA1146FFF7F5FF00F092F800F0D1F828
:1001400003B4FFF7F2FF03BC00F046FA094880470A
:1001500009480047FEE7FEE7FEE7FEE7FEE7FEE7A9
:10016000FEE7FEE7FEE7FEE704480549034A054BC4
:100170007047000001030000CD0000007000001077
:1001800070020010700000102B49486858B12B49CC
:10019000096801F10101294A11602749896841EA8A
:1001A0000001254A91602449C86858B1244909686A
:1001B00001F10101224A11601F49096941EA000168
:1001C0001D4A1161704710B501461E48006840F095
:1001D00000501D4AC2F8C4004FF00100164A90605A
:1001E000106151B919481A4A10601A48124AC2F8E7
:1001F00004011948194A106001E0002010BD4FF0B9
:1002000001000D4A106300BF0B48006B10F0010F96
:10021000FAD04FF01A004FF0010202FA00F24FEA52
:1002200050134FF0E02404EB8303C3F8002100BF18
:100230004FF00100E2E70000004000500400001011
:1002400008000010C4C00F4000C00F4000C00720CD
:10025000004100500000082000444A8C0C4100502E
:1002600000F0CBF8184E194D4FF0000405E010C611
:100270004FF0000001C504F10104B4F5806FF6D31E
:100280000020FFF7A0FF1248006848F2010140EA91
:1002900001001049C1F8100100BF0F480068002894
:1002A000FBD0094E094D4FF0000407E002CE04CD0B
:1002B000914201D000BFFEE704F10104B4F5806F64
:1002C000F4D300BFFEE7000000C0072000000820B4
:1002D000104100500040005004000010704770476B
:1002E00070470446AFF300802046FFF729FF000067
:1002F000004870470C00001070470000FFFFFFFF30
:100300004FF000004FF020018C4A116000BF8B4974
:10031000096811F0400FFAD04FF00301884A1160CC
:100320004FF00001874AC2F8A811874A11604FF0C8
:100330000101864A11604FF00B01854A11604FF0B0
:100340000101A2F1040211604FF0AA01814A11607B
:100350004FF055017B4AC2F88C107C49096802298C
:1003600007D000BF7A49091D096811F0806FF9D0E4
:1003700006E04FF0000001E000F101006428FBD925
:100380004FF00301744A11604FF0AA016D4AC2F8A0
:100390008C104FF055016F4A11604FF023016F4AE6
:1003A00011604FF00101A2F1040211604FF0AA01A7
:1003B0006B4A11604FF05501116000BF6749091D7C
:1003C000096811F4806FF9D04FF00301654A11609C
:1003D0004FF0AA015B4AC2F8AC104FF05501604AD9
:1003E00011606149614A11604FF00001604A11607B
:1003F00043F23A01534A116070475E480068C0F307
:100400000160032868D15148006810F0030006D04D
:10041000012823D002283FD003285CD100E000BF90
:1004200054480068C0F30E0000F101004FEA40019B
:100430004448D0F88800C0F3074000F10100B1FB48
:10044000F0F04D4900FB01F03D490968C9B201F1E6
:100450000101B0FBF1F0494908603CE04548006803
:10046000C0F30E0000F101004FEA40013548D0F81A
:100470008800C0F3074000F10100B1FBF0F04049F3
:1004800000FB01F02E490968C9B201F10101B0FB7E
:10049000F1F03A4908601EE036480068C0F30E00EB
:1004A00000F101004FEA40012648D0F88800C0F36F
:1004B000074000F10100B1FBF0F04FF4FA4100FBFE
:1004C00001F01F490968C9B201F10101B0FBF1F067
:1004D0002A49086000BF2FE01C48006810F00300A4
:1004E00006D0012810D0022819D0032823D100E01B
:1004F00000BF13480068C0B200F101001E49B1FB03
:10050000F0F01E49086016E00D480068C0B200F126
:1005100001001B49B1FBF0F0184908600BE00848E6
:100520000068C0B200F101004FF4FA41B1FBF0F0F5
:100530001249086000BF00BF70470000A0C10F4013
:1005400004C10F4000C00F40ACC10F400CC10F40B0
:1005500084C00F408CC00F4080C00F40A4C00F402B
:10056000ACC00F40A0C00F40DE872804C4C00F40BD
:10057000C8C10F4088C00F4000093D0000000010B6
:10058000001BB7007546FFF7B3FEAE46050069468F
:10059000534620F00700854618B020B5FFF7E4FD6C
:1005A000BDE820404FF000064FF000074FF0000874
:1005B0004FF0000B21F00701AC46ACE8C009ACE8F5
:1005C000C009ACE8C009ACE8C0098D46704700001E
:1005D000004870471000001001491820ABBEFEE72C
:1005E0002600020010B5FFF7F3FF4FF00001016095
:1005F00010BD000004060000000000100C00000008
:100600000801000000093D0000000000000000009B
:04000005000000CD2A
:00000001FF
