:020000040000FA
:10000000E07B0010FD010000050200000702000077
:10001000090200000B0200000D02000000000000B9
:100020000000000000000000000000000F020000BF
:100030001102000000000000130200001502000081
:1000400017020000B11B0100D58C00001702000050
:100050008D910000258A00001702000017020000A1
:100060001702000017020000ED3400001702000024
:10007000170200001702000017020000170200001C
:10008000170200001702000017020000170200000C
:1000900017020000198E0000331D01001702000036
:1000A00017020000170200009194000017020000E0
:1000B00009D7000017020000170200001702000015
:1000C00017020000170200001702000000F002F8FB
:1000D00000F084F80AA090E8000C82448344AAF15E
:1000E0000107DA4501D100F079F8AFF2090EBAE85C
:1000F0000F0013F0010F18BFFB1A43F0010318475C
:1001000050F4010070F401000A444FF0000C10F8A4
:10011000013B13F0070408BF10F8014B1D1108BF85
:1001200010F8015B641E05D010F8016B641E01F825
:10013000016BF9D113F0080F1EBF10F8014BAD1C75
:100140000C1B09D16D1E58BF01F801CBFAD505E093
:1001500014F8016B01F8016B6D1EF9D59142D6D3ED
:10016000704700000023002400250026103A28BF15
:1001700078C1FBD8520728BF30C148BF0B60704719
:10018000692911F03187642911F02E87752911F042
:100190002B876F2911F0C287782911F0EB8703684C
:1001A000DB0928BF41F08001632912F03A827329EC
:1001B00012F03F82E32912F04A82002070471FB5F7
:1001C00018F0BBF912F05AFB04000020002117F0D0
:1001D00057F9401C60601FBD10B510BD12F029FB1F
:1001E0001146FFF7ECFF00F01BFA12F059FB03B4C5
:1001F000FFF7F2FF03BC12F059FB000009488047EB
:1002000009480047FEE7FEE7FEE7FEE7FEE7FEE7F8
:10021000FEE7FEE7FEE7FEE704480549034A054B13
:1002200070470000AF040000CD000000E07900102E
:10023000E07B0010E079001070B505460C46A4F193
:100240002000044A02EB00114FF01002284612F081
:10025000A4F870BD8E87010000BFFEE707280BD20F
:10026000DFE800F00405060A0708090004E003E0DF
:1002700002E001E000E000BF00BF00BFFEE710B5F4
:1002800013F010FF15F0F2FA15F0FCF816F030FF3D
:1002900015F0E8FF14F016FB15F036FCBDE8104031
:1002A00013F0E8BB10B513F017FF15F0E5FA15F0E1
:1002B00057F916F0A7F814F0E3FEBDE8104013F06C
:1002C000FFBC002070477047002070470020704737
:1002D0000020704710B511F0E0F811F06FF910BD73
:1002E00070B5064612F00AF90468054630460A223F
:1002F000002112F0B8F92C6070BD7047FFFFFFFFBE
:100300002DE9F047B4480068C0F3016003287CD1B0
:10031000B1488430006810F0030006D0012834D0C2
:10032000022860D003282FD100E000BFAA4800684F
:10033000C0F3074000F1010C4FF00201A748D0F8CC
:100340008800C0F30E0000F10100A1FB0002A44BE5
:100350004FF00001A0FB036902FB039200FB0127A1
:1003600062460B463046394611F04CFD04469D4826
:100370000068C0B200F1010632464FF0000320468B
:1003800011F040FD984908605DE093480068C0F3B3
:10039000074000F1010C4FF002019048D0F88800AE
:1003A000C0F30E0000F10100A1FB00128F4B4FF0D3
:1003B0000000A1FB036902FB039201FB00216246DE
:1003C0000346304611F01EFD044686480068C0B260
:1003D00000F1010632464FF00003204611F012FDF5
:1003E000814908602FE07C480068C0F3074000F1B5
:1003F000010C4FF002017948D0F88800C0F30E00DC
:1004000000F10100A1FB001200E01DE04FF40043E9
:100410004FF00008A1FB036902FB039201FB0821D6
:1004200062464346304611F0EDFC04466D480068D4
:10043000C0B200F1010632464346204611F0E2FC0C
:100440006949086000BF30E066480830006810F075
:10045000030006D0012810D0022819D0032823D188
:1004600000E000BF5F480068C0B200F101005C49D5
:10047000B1FBF0F05C49086016E05A480068C0B271
:1004800000F101005949B1FBF0F0574908600BE059
:1004900054480068C0B200F101004FF40041B1FBC4
:1004A000F0F05149086000BF00BFBDE8F0874FF091
:1004B00020004F4908604948D0F8A00110F0200FF3
:1004C00005D000BF4A48006810F0400FFAD04FF046
:1004D0000300444908604FF000004049C1F8A801FA
:1004E000444908604FF001004349086043484449CB
:1004F00008604FF0AA00434908604FF055000860BB
:100500004FF00100404908604FF0AA003D490860E3
:100510004FF055003149C1F88C0000BF2E480068EB
:1005200010F0806FFAD04FF00300374908604FF0A9
:10053000AA002A49C1F88C004FF0550031490860E3
:1005400000BF2548006810F0407FFAD04FF023002C
:100550002E4908604FF0AA002049C1F8AC004FF0C6
:1005600055002B4908604FF001002A4908604FF000
:10057000AA00274908604FF055001849C1F8AC009F
:1005800000BF2248001D006810F4806FF9D04FF0C2
:100590000300204908604FF0AA001049C1F8AC00E0
:1005A0004FF055001A49086000BF1848001D006848
:1005B00010F4407FF9D01848184908604FF0000047
:1005C0000649C1F8C8010846006820F4704040F4AC
:1005D000804008607047000088C00F4000C00F4096
:1005E00000093D0004C10F4000000010001BB700CF
:1005F000A0C10F40ACC10F400CC10F40630005000B
:1006000084C00F408CC00F4080C00F40A4C00F407A
:10061000ACC00F40A0C00F40DE872804C4C00F400C
:100620001CB54FF00000464908604649086046483E
:10063000006817F031FA06464FF03332434B17F09B
:100640007BFA04460022424B16F062FF80460022ED
:10065000404B17F071FACDE9000117F0D9F93E4986
:1006600008604FF001003D4908603D4908604FF0C7
:1006700000003C4908603C490880824606E04FF093
:1006800050003A4921F81A000AF1010ABAF1090F9B
:10069000F5DB37A007F083FD4FF4E13007F037FDBD
:1006A00039A007F07CFD03F05FF93DA007F077FD6E
:1006B00008F054FA4FF47A7008F0AFFA232008F0EB
:1006C000C1FA3DA007F06BFD012008F009FE08F01B
:1006D00005FF002008F03AFF40F6B8314FF496705D
:1006E00008F02EFE3AA007F05AFD08F049FD3EA0A2
:1006F00007F055FDFFF7EEFD41A007F050FD00F0BB
:10070000D4F94448008800F07DFA00F055FF01F06C
:100710009CFF41A007F043FD0DF088FB45A007F0CA
:100720003EFD0CE009F004F84FF0000A01E00AF188
:10073000010A4CF250308245F9DB0DF0A0FCF1E7E4
:1007400058000010F4000010E40000103333E33FC1
:1007500000B0744000005940E8000010480100104B
:100760004001001044010010220000101803001086
:10077000436F6E6669677572616E646F2055415292
:1007800054300A0D00000000436F6E666967757291
:10079000616E646F2043616D6172610A0D0000003B
:1007A000436F6E6669677572616E646F2054494D60
:1007B0004552530A0D000000436F6E6669677572FB
:1007C000616E646F204441432B444D410A0D00008B
:1007D000436F6E6669677572616E646F205352462F
:1007E0003034200A0D000000436F6E666967757231
:1007F000616E646F204D6F746F7265730A0D000037
:10080000436F6E6669677572616E646F204C434416
:100810000A0D0000DA010010436F6E666967757299
:10082000616E646F20574542534552564552200A27
:100830000D000000546F646F20636F6E666967750A
:100840007261646F0A0D00001CB54FF000008DF856
:1008500002008DF804008DF803004FF002008DF8BF
:1008600000004FF000008DF80100684602F0FCF92E
:100870004FF001008DF80100684602F0F5F94FF0E5
:1008800002008DF80100684602F0EEF94FF0030017
:100890008DF80100684602F0E7F94FF004008DF88A
:1008A0000100684602F0E0F94FF005008DF8010004
:1008B000684602F0D9F94FF006008DF8010068464D
:1008C00002F0D2F94FF007008DF80100684602F0FF
:1008D000CBF90122FF21022001F069FF4FF0000057
:1008E0008DF802008DF804008DF803004FF002002F
:1008F0008DF800004FF00F008DF80100684602F0FF
:10090000B3F94FF010008DF80100684602F0ACF921
:100910004FF011008DF80100684602F0A5F94FF084
:1009200012008DF80100684602F09EF94FF01300A6
:100930008DF80100684602F097F94FF014008DF829
:100940000100684602F090F94FF015008DF80100A3
:10095000684602F089F94FF016008DF801006846EC
:1009600002F082F901224FF4FF01002001F01FFF85
:100970004FF000008DF802008DF804008DF80300A0
:100980004FF001008DF800004FF01B008DF80100C2
:10099000684602F069F94FF01C008DF801006846C6
:1009A00002F062F94FF01D008DF80100684602F078
:1009B0005BF901224FF06051104601F0F8FE4FF054
:1009C00000008DF802008DF804008DF803004FF050
:1009D00002008DF800004FF008008DF80100684615
:1009E00002F042F901221102022001F0E0FE1CBDDA
:1009F00010B500BF4FF48072FE4BDA654FF0006215
:100A0000DA634FF000529A6300BF0246D3B2F94C4A
:100A100063654FF4FF0303EAC213636100BF4FF045
:100A200080522346DA639A634FF480729A6500BF5E
:100A300000BFDA654FF000629A6300BF0A46D3B286
:100A400063654FF4FF0303EAC213636100BF4FF015
:100A500080522346DA639A634FF480729A6500BF2E
:100A600010BD30B504460D4629464FF02000FFF773
:100A7000BFFFE1480088401E001B81B22120FFF724
:100A8000B7FF30BD4FF000010CE04FF0000202E074
:100A900002F101039AB240F275439A42F8DB01F188
:100AA000010399B28142F0DB704710B5FFF7CCFE2D
:100AB0006420FFF7E7FF4FF480710120FFF798FFF4
:100AC0004FF4C0610220FFF793FF41F218010320A9
:100AD000FFF78EFF00210420FFF78AFF40F2072175
:100AE0000820FFF785FF00210920FFF781FF002183
:100AF0000A20FFF77DFF00210C20FFF779FF00217E
:100B00000D20FFF775FF00210F20FFF771FF322046
:100B1000FFF7B8FF4FF480710720FFF769FF32201D
:100B2000FFF7B0FF41F2B0611020FFF761FF012134
:100B30001120FFF75DFF01211720FFF759FF4FF448
:100B40009C711220FFF754FF4FF400611320FFF750
:100B50004FFF09212920FFF74BFF09212A20FFF72A
:100B600047FF0021A420FFF743FF00215020FFF79B
:100B70003FFFEF215120FFF73BFF00215220FFF7FD
:100B800037FF40F23F115320FFF732FF4FF41C5163
:100B90006020FFF72DFF03216120FFF729FF0021CF
:100BA0006A20FFF725FF00218020FFF721FF0021A9
:100BB0008120FFF71DFF00218220FFF719FF002190
:100BC0008320FFF715FF00218420FFF711FF00218C
:100BD0008520FFF70DFF13219020FFF709FF00216B
:100BE0009220FFF705FF03219320FFF701FF4FF449
:100BF00088719520FFF7FCFE40F273110720FFF784
:100C0000F7FE10BD30B504464FF000010846FFF76F
:100C100028FF4FF022004FF48071764AD1654FF0E3
:100C20000061D1634FF00051916300BF01465165EF
:100C30004FF4FF0202EAC1126E4B5A6100BF4FF03F
:100C400080511A46D16391634FF48071916500BF62
:100C50004FF000051DE000BF4FF480706549C86586
:100C60004FF00060886300BF2046C1B2614A516501
:100C70004FF4FF0101EAC011516100BF4FF08050F5
:100C80001146C86388634FF48070886500BF05F122
:100C9000010559480088594909884843A842DAD8CB
:100CA00030BDF0B503460C464FF022004FF4807182
:100CB000504EF1654FF00061F1634FF00051B163A8
:100CC00000BF014671654FF4FF0606EAC116494FA1
:100CD0007E6100BF4FF080513E46F163B1634FF437
:100CE0008071B16500BF4FF000051DE000BF4FF4FB
:100CF00080704049C8654FF00060886300BF1046AF
:100D0000C1B23C4E71654FF4FF0101EAC01171613F
:100D100000BF4FF080503146C86388634FF4807045
:100D2000886500BF05F1010503FB04F0A842DDD88A
:100D3000F0BD2DE9F0470746884615461E46DDF80A
:100D4000209008EB0600A0F1010083B207EB05003C
:100D5000A0F1010082B24146384600F0A5FF4146AD
:100D60003846FFF77EFE4FF022004FF48071214A93
:100D7000D1654FF00061D1634FF00051916300BF26
:100D8000014651654FF4FF0202EAC112194B5A6144
:100D900000BF4FF080511A46D16391634FF48071C8
:100DA000916500BF4FF000042DE04FEA440101F1CE
:100DB000010119F8011019F8142041EA02204FF43A
:100DC00080710C4AD1654FF00061916300BF01460C
:100DD000CAB2084B5A654FF4FF0202EAC1125A61C7
:100DE00000BF4FF080511A46D16391634FF4807178
:100DF000916505E000C009208E00001090000010F1
:100E000000BF04F1010405FB06F0A042CDD8EF239A
:100E100040F23F120021084600F046FFBDE8F0878F
:100E200030B5014601F01F04C1F345134FEAD1224A
:100E30004FEAC42505EB43151544A8B230BD2DE992
:100E4000F04104460D4629462046FFF70AFE4FF0C2
:100E500022004FF48071FE4AD1654FF00061D163EA
:100E60004FF00051916300BF014651654FF4FF02FE
:100E700002EAC112F64B5A6100BF4FF080511A4688
:100E8000D16391634FF48071916500BF00BF084644
:100E9000D0654FF0006090634FF0805090634FF04A
:100EA0000050D06300BF1B6C23F0FF0317463B6468
:100EB00013461B6823F4FF033B6013465B6DD8B2F7
:100EC00013465B6903F4FF0240EAD2103B461B6CF9
:100ED00043F0FF033B643B461B6843F4FF033B6066
:100EE00000BF01464FF000503A4690634FF48070C7
:100EF000906500BF0E4600BFD0654FF00060906364
:100F00004FF0805090634FF00050D06300BF134605
:100F10001B6C23F0FF033B6413461B6823F4FF03A1
:100F20003B6013465B6DD8B213465B6903F4FF0266
:100F300040EAD2103B461B6C43F0FF033B643B4648
:100F40001B6843F4FF033B6000BF01464FF00050B5
:100F50003A4690634FF48070906500BF0E4630466D
:100F6000FFF75EFFBDE8F08170B506460C461546FA
:100F7000B8480088864203DAB7480088844200DB1C
:100F800070BD21463046FFF76CFD29462220FFF751
:100F90002FFD00BFF4E72DE9FF5F06460F4691469F
:100FA0009A46DDF838B049466846FFF745F9AB4840
:100FB000007838BB4FF0000422E01DF804804FF0A9
:100FC000000518E0C5F1070048FA00F010F0010F25
:100FD00007D03A1991B2721990B25246FFF7C4FF86
:100FE00006E03A1991B2721990B25A46FFF7BCFF67
:100FF00005F1010085B2082DE4DB04F1010084B2A3
:10100000102CDADB95480078012827D14FF0000436
:1010100022E01DF804804FF0000518E0C5F107003C
:1010200048FA00F010F0010F07D07A1991B2321B84
:1010300090B25246FFF798FF06E07A1991B2321B40
:1010400090B25A46FFF790FF05F1010085B2082DD6
:10105000E4DB04F1010084B2102CDADBBDE8FF9F71
:101060002DE9FF4F82B08046894693464FF002003B
:10107000019001A800907A4800EB0B10009077488F
:10108000007800284BD1044647E0009830F814A0BF
:101090004FF000063AE04FF0000532E04FF0000755
:1010A00028E0C5F10F004AFA00F010F0010F0FD050
:1010B000BDF8042002FB04624A4491B2BDF804204A
:1010C00002FB05823A4490B2059AFFF74DFF0EE00D
:1010D000BDF8042002FB04624A4491B2BDF804202A
:1010E00002FB05823A4490B20F9AFFF73DFF07F1E9
:1010F000010087B2BDF804008742D2DB05F1010090
:1011000085B2102DCADB06F1010086B2BDF80400DD
:101110008642C0DB04F1010084B2082CB5DB4F48E5
:10112000007801284ED14FF0000449E0009830F8D3
:1011300014A04FF000063CE04FF0000534E04FF003
:1011400000072AE0C5F10F004AFA00F010F0010F85
:1011500010D0BDF8042002FB05923A4491B2BDF8CC
:10116000042002FB0462A8EB020290B2059AFFF78A
:10117000FBFE0FE0BDF8042002FB05923A4491B259
:10118000BDF8042002FB0462A8EB020290B20F9AA1
:10119000FFF7EAFE07F1010087B2BDF804008742BD
:1011A000D0DB05F1010085B2102DC8DB06F101008E
:1011B00086B2BDF804008642BEDB04F1010084B2B1
:1011C000082CB3DB06B0BDE8F08F2DE9F8430446E8
:1011D0000D4616469846DDF8209000BF16F8017BB4
:1011E00043463A4629462046CDF80090FFF7D3FE05
:1011F0001A480078F0B9174800880938A04208DB7F
:10120000154800881138A84203DB04F1080084B2B5
:1012100009E0104800880938A04204DA4FF00004C1
:1012200005F1100085B20C4800881138A84201DA97
:101230004FF000050948007801282CD105480088A6
:101240001138A04213DB044800880938A84209E09D
:1012500000C009208E0000109000001092000010C5
:1012600022F0010003DB05F1080085B209E0D04857
:1012700000880938A84204DA4FF00005A4F11000F4
:1012800084B2CC4800881138A04204DAC9480088EA
:10129000A0F1010084B2307800289FD1BDE8F88326
:1012A00030B505464FF037014FF05000FFF7A0FB77
:1012B000B6215120FFF79CFB5F215220FFF798FBDE
:1012C000DF215320FFF794FB4FF0000407E035F8CF
:1012D00014102220FFF78CFB04F1010084B243F6C6
:1012E00098208442F3DB30BD2DE9F04F04460D46D3
:1012F000164699464FF0000BB44201DA012000E097
:1013000000204D4501DA012100E00021084202D011
:101310004FF0010B3FE0B44201DD012000E000206E
:101320004D4501DA012100E0002108420CD04FF0C8
:10133000020B0FFA86F826461FFA88F40FFA89F88E
:10134000A9461FFA88F526E0B44201DA012000E040
:1013500000204D4501DD012100E00021084202D0BE
:101360004FF0020B17E0B44201DD012000E0002045
:10137000B54201DD012100E0002108420BD04FF011
:10138000010B0FFA86F826461FFA88F40FFA89F83F
:10139000A9461FFA88F5B4421AD14D450BDA00BFB1
:1013A00029462046099AFFF7DFFD05F1010085B2C5
:1013B000A945F5DA0AE000BF29462046099AFFF759
:1013C000D3FDA5F1010085B24D45F5DABDE8F08FFA
:1013D0004D4519D1B4420BDA00BF29462046099A7F
:1013E000FFF7C2FD04F1010084B2A642F5DA0AE07B
:1013F00000BF29462046099AFFF7B6FDA4F1010077
:1014000084B2B442F5DAE1E7BBF1010F03D0BBF1DE
:10141000020F7CD15EE0A6EB04000FFA80FAA9EB84
:10142000050007B2BA452ADDCAEB47000FFA80F87B
:101430001DE029462046099AFFF796FD04F10100B8
:1014400084B2B8F1000F0CDD05F1010085B24FEA5E
:1014500047004FF0020101FB1A0040440FFA80F8E8
:1014600005E04FF0020000FB07800FFA80F8B4425D
:10147000DFD129462046099AFFF776FD29E0C7EB20
:101480004A000FFA80F81DE029462046099AFFF726
:101490006BFD05F1010085B2B8F1000F0CDD04F120
:1014A000010084B24FEA47004FF0020101FB1A002D
:1014B00040440FFA80F805E04FF0020000FB07807F
:1014C0000FFA80F84D45DFD129462046099AFFF7EB
:1014D0004BFD61E0A6EB04000FFA80FAA5EB0900D2
:1014E00007B2BA452CDDCAEB47000FFA80F81FE0BF
:1014F00029462046099AFFF737FD04F1010084B21E
:10150000B8F1000F0EDDA5F1010085B200E042E068
:101510004FEA47004FF0020101FB1A0040440FFA66
:1015200080F805E04FF0020000FB07800FFA80F81A
:10153000B442DDD129462046099AFFF715FD29E07E
:10154000C7EB4A000FFA80F81DE029462046099AA9
:10155000FFF70AFDA5F1010085B2B8F1000F0CDD1F
:1015600004F1010084B24FEA47004FF0020101FB91
:101570001A0040440FFA80F805E04FF0020000FB2B
:1015800007800FFA80F84D45DFD129462046099A99
:10159000FFF7EAFC00E000BF00BF00BF16E710B590
:1015A000044621464FF02200FFF722FA10BD00004A
:1015B000900000108E00001000B589B04FF00200BE
:1015C0008DF81E004FF000008DF820008DF81F00F0
:1015D0008DF81C004FF007008DF81D0007A801F0E2
:1015E00043FB4FF008008DF81D0007A801F03CFBFD
:1015F0004FF009008DF81D0007A801F035FB4FF0F2
:1016000000008DF81E008DF81C004FF006008DF8CC
:101610001D0007A801F028FB4FF000008DF81E0008
:101620004FF002008DF81C004FF00D008DF81D00EA
:1016300007A801F019FB00224FF40051022001F02D
:10164000B6F84FF40051022001F0C7F80122402102
:10165000002001F0ACF84021002001F0BEF801A804
:1016600001F07BFCFE48069001A9FE4801F011FC48
:101670000121FC4801F07FFC09B000BD10B54FF01E
:10168000000109E04FF00C0200BF1300A2F10104B9
:10169000E2B2FAD101F101018142F3D310BD10B5DC
:1016A000044600BF1021EF4801F023FE0128F9D0C5
:1016B0002146EC4801F0C7FC00BF0421E94801F0D5
:1016C00018FE0028F9D0E74801F0CEFCC0B210BDEA
:1016D00070B50020FFF7E3FF05464FEA05244FF001
:1016E0000100FFF7CBFF0020FFF7D9FF054644EAD2
:1016F00005044FEAE404C4F30B04204670BD10B5A2
:101700004FF04000D849C8614FF00100FFF7B6FF25
:101710009020FFF7C4FF0120FFF7B0FFFFF7D8FFCD
:1017200004464FF04000D0498861204610BD10B5F6
:101730004FF04000CC49C8614FF00100FFF79EFF19
:10174000D020FFF7ACFF0120FFF798FFFFF7C0FFA5
:1017500004464FF04000C4498861204610BD2DE981
:10176000F04104460D46FFF7CAFF06464FF0010060
:10177000FFF784FFFFF7DBFF074626602F60BDE819
:10178000F08170B505460C464FF478422146284654
:10179000FFF7EAFB4FF478422146681C80B2FFF75E
:1017A000E3FB4FF47842601C81B22846FFF7DCFB74
:1017B0004FF47842601C81B2681C80B2FFF7D4FB02
:1017C00070BDF8B504460D461646A4F102018AB272
:1017D000A4F10F0188B22B4629460096FFF784FD3D
:1017E0002B4604F10F0082B22946A01C80B200965D
:1017F000FFF77AFDA81E83B20D3881B2224620463B
:101800000096FFF771FD05F10F0083B22246A81C78
:1018100081B220460096FFF767FDE11F8AB20839C2
:1018200088B205F10F018BB289B20096FFF75CFD1B
:10183000A4F10F018AB288B205F10F018BB2E91D44
:1018400089B20096FFF750FDA5F10F07BBB2E71F65
:10185000BAB2A5F10F07B9B2A4F10F07B8B200965A
:10186000FFF742FDA5F10F07BBB2A4F10F07BAB213
:10187000EF1FB9B2A4F10F07B8B20096FFF734FD1D
:1018800005F10F0083B204F10F0082B205F10F00E1
:1018900081B2E01D80B20096FFF726FD05F10F0032
:1018A00083B204F10F0082B2E81D81B204F10F008F
:1018B00080B20096FFF718FDA5F10F0083B281B248
:1018C00004F10F0082B2E01D80B20096FFF70CFD1C
:1018D000E81F83B2083881B204F10F0082B280B2EF
:1018E0000096FFF701FD384681B260480078604AF3
:1018F000127810445F4A22F83010A5F10F0081B22F
:101900005A4800785A4A127810445A4A02EBC000EA
:1019100041804FF01E0055490978554A127811440C
:10192000544A02EBC101888050490978504A127824
:101930001144504A02EBC101C8804D48007800F1C3
:1019400001004B490870F8BDF8B504460D4616462F
:101950001F46012F06D0022F25D0032F44D0042F7D
:101960007CD162E0A5F10F0081B21E3083B2224625
:1019700020460096FFF7B8FCA5F10F018BB2A4F149
:101980000F0188B2224629460096FFF7ADFCA5F16B
:101990000F0081B22B4604F10F0082B22046009660
:1019A000FFF7A2FC72E0A5F10F0081B21E3083B2F6
:1019B000224620460096FFF797FCA4F10F0188B25B
:1019C00005F10F018BB2224629460096FFF78CFCE9
:1019D00005F10F0083B22246294604F10F0080B2C0
:1019E0000096FFF781FC51E0A4F10F0188B22B466D
:1019F0001E318AB229460096FFF776FC2B4604F189
:101A00000F0082B205F10F0081B220460096FFF769
:101A10006BFCA5F10F0081B22B4604F10F0082B2DE
:101A200020460096FFF760FC30E0A4F10F0188B279
:101A30002B461E318AB229460096FFF755FCA4F1C9
:101A40000F0082B22B4605F10F0081B220460096AE
:101A5000FFF74AFCA4F10F0082B20DE015E0000090
:101A600020A107000000034000C009203901001038
:101A700038010010FC180010A5F10F0081B22B46B0
:101A800020460096FFF730FC00E000BF00BFA4F145
:101A90000F00FE490978FE4A12781144FD4A22F8E7
:101AA0003100A5F10F00F9490978F94A127811447B
:101AB000F84A02EBC10148804FF01E00F349097853
:101AC000F34A12781144F34A02EBC1018880EF49CE
:101AD0000978EF4A12781144EE4A02EBC101C8803E
:101AE000EB48007800F10100E9490870F8BD2DE9E4
:101AF000F84F04460D46924698464FF0030950466B
:101B000010F02CFC4FEA490101EBC000C7B24FEACC
:101B1000490000F11006E048007800285DD1E01986
:101B200082B22B4629462046CDF80080FFF7DCFB29
:101B3000A81983B2E01982B2A81981B22046CDF863
:101B40000080FFF7D1FBA81983B222462946204620
:101B5000CDF80080FFF7C8FBA9198BB2E1198AB252
:101B6000E11988B22946CDF80080FFF7BDFB42F2AB
:101B7000955005EB090291B204EB0902009090B276
:101B800043465246FFF721FBC0480078C049097818
:101B90000844C04921F83040BC480078BC49097865
:101BA0000844BC4901EBC0004580B8480078B849FA
:101BB00009780844B74901EBC0008780B348007832
:101BC000B34909780844B34901EBC000C680B04866
:101BD000007800F10100AE490870AF480078012894
:101BE00060D1A01B82B22B4629462046CDF800804A
:101BF000FFF77AFBE81983B2A01B82B2E81981B221
:101C00002046CDF80080FFF76FFBE81983B222462B
:101C100029462046CDF80080FFF766FBE9198BB214
:101C2000A11B8AB2A11B88B22946CDF80080FFF71C
:101C30005BFB42F2955005EB090291B2A4EB09025D
:101C4000009090B243465246FFF7BFFAA4EB06005D
:101C500081B28E4800788E4A127810448D4A22F85C
:101C600030108A4800788A4909780844114601EB07
:101C7000C0004580854800788549097808441146A8
:101C800001EBC000868081480078814909780844CA
:101C9000114601EBC000C7807D48007800F10100CB
:101CA0007B490870BDE8F88F2DE9F04104460F46E6
:101CB00015461E4639464FF05000FEF799FE314654
:101CC0005120FEF795FE75480088401E401B81B2EA
:101CD0005220FEF78DFE71480088401E001B81B225
:101CE0005320FEF785FEBDE8F0812DE9F041064660
:101CF0000F4614461D46DDF8188006EB04016748C0
:101D00000088A0F10100814206DD04F10100634971
:101D10000988A1EB000086B2791961480088401E4D
:101D2000814206DD05F101005D490988A1EB000053
:101D300087B239463046FEF794FE7819401E83B2CA
:101D40003019401E82B239463046FFF7ADFF424699
:101D500029462046FEF7A5FFEF2340F23F1200215F
:101D60000846FFF7A1FFBDE8F0812DE9F8430446DE
:101D70000D4616461F46DDF820904FF00000A5F1F5
:101D8000010C1FFA8CF304EB060C1FFA8CF2A5F180
:101D9000010C1FFA8CF1A4F1010C00901FFA8CF0D9
:101DA000FFF7A2FA002005EB070C1FFA8CF304EBF7
:101DB000060C1FFA8CF205EB070C1FFA8CF1A4F14C
:101DC000010C00901FFA8CF0FFF78EFA0020A5F1AD
:101DD000010C1FFA8CF3A4F1010C1FFA8CF205EB35
:101DE000070C1FFA8CF1A4F1010C00901FFA8CF083
:101DF000FFF77AFA002005EB070C1FFA8CF304EBCF
:101E0000060C1FFA8CF2A5F1010C1FFA8CF104EB01
:101E1000060C00901FFA8CF0FFF766FAB9F1000F7C
:101E200020D120481949097830F8110078434FF043
:101E3000FF0190FBF1F01FFA80F84FF6E070434687
:101E40003246294600902046FFF74FFF00200090C1
:101E5000A7EB080083B205EB080081B232462046AA
:101E6000FFF743FFB9F1010F2FD10E480749097859
:101E700030F8110070434FF0FF0190FBF1F01FFAB2
:101E800080F84FF6E0703B4642460DE03901001005
:101E900038010010FC180010920000108E00001095
:101EA0009000001018030010294600902046FFF70C
:101EB0001CFF0020A6EB08018AB204EB0801009089
:101EC00088B23B462946FFF710FFF8480078F849EA
:101ED00009780844F74921F83040F4480078F4497B
:101EE00009780844F34901EBC0004580EF480078C9
:101EF000EF4909780844EF4901EBC0008680EB48C0
:101F00000078EB4909780844EA4901EBC000C78032
:101F1000E649097809FA01F0E749096840EA010051
:101F2000E5490860E148007800F10100DF490870E8
:101F30004FF0EF0340F23F124FF000010846FFF769
:101F4000B3FEBDE8F883FFB581B005461E4636BB3B
:101F5000BDF80E00D94931F8151048434FF0FF0184
:101F600090FBF1F084B24FF6E0700090BDF80C20C9
:101F7000BDF80A10BDF808002346FFF7B6FE0020A2
:101F80000090BDF80E703F1BBBB2BDF80C20BDF831
:101F90000A702744B9B2BDF80800FFF7A6FE012E6B
:101FA00026D1BDF80C00C54931F8151048434FF053
:101FB000FF0190FBF1F084B24FF6E0700090BDF8A5
:101FC0000E30BDF80A10BDF808002246FFF78DFE5E
:101FD00000200090BDF80E30BDF80C703F1BBAB267
:101FE000BDF80A10BDF808702744B8B2FFF77DFEAF
:101FF00005B0F0BD1FB593B9B14A5288BDF806408F
:10200000111B01D40A4601E0C1F10002C2EB022219
:10201000BDF80A4092FBF4F2A84C24F81020012BE2
:1020200012D1A74A1288BDF80440111B01D40A46F8
:1020300001E0C1F10002C2EB0222BDF8084092FBB0
:10204000F4F29E4C24F810201FBD2DE9F04F85B00E
:102050004FF00009CA46CB46994A51881088FEF7CE
:10206000EEFEADF80000964A5288521C91B2944A96
:102070001088FEF7E4FEADF80200914A5288521E25
:1020800091B28F4A1088FEF7DAFEADF804008C4A50
:102090005288521C91B28A4A1288521C90B2FEF7A2
:1020A000CEFEADF80600864A51881288521C90B2C6
:1020B000FEF7C5FEADF80800814A5288521E91B263
:1020C0007F4A1288521C90B2FEF7B9FEADF80A00A2
:1020D0007B4A51881288521E90B2FEF7B0FEADF8CE
:1020E0000C00774A5288521C91B2754A1288521ECF
:1020F00090B2FEF7A4FEADF80E00714A5288521E4F
:1021000091B26F4A1288521E90B2FEF798FEADF857
:1021100010004C4608E03DF8140009EBE0201FFADF
:1021200080F904F1010084B2092CF4DB4FF00900BE
:1021300099FBF0F085B24FF0000409E03DF814007F
:10214000C0F3451050441FFA80FA04F1010084B234
:10215000092CF3DB4FF009009AFBF0F086B24FF048
:10216000000409E03DF8140000F01F0058441FFA75
:1021700080FB04F1010084B2092CF3DB4FF009006D
:102180009BFBF0F087B24FEAC52000EB46103844C5
:102190001FFA80F84FF000004A490880404605B019
:1021A000BDE8F08FF0B597B04FF000074FF0480151
:1021B000684610F037F900BF15A916A8FFF7CFFA47
:1021C00016984DF8270009A8159940F8271007F12F
:1021D0000100C7B23C48406D10F4005F01D1092FE7
:1021E000EADB092F61D1DDE90001084402990844C6
:1021F0004FF0030190FBF1F01290DDE90301084478
:10220000059908444FF0030190FBF1F01390DDE9CC
:1022100006010844089908444FF0030190FBF1F0CF
:102220001490DDE91201A0EB0104DDE91301A0EB3C
:10223000010512991498A0EB0106002C01DD20463F
:1022400001E0C4F100000446002D01DD284601E054
:10225000C5F100000546002E01DD304601E0C6F163
:1022600000000646022C06DD022D04DD022E02DDF2
:10227000002017B0F0BDAC422ADAA6420ADA149A5E
:10228000129901EB020000EBD071C1F34F010F4A2C
:10229000118034E0DDE9121201EB020000EBD07195
:1022A000C1F34F01094A118029E0A2E03901001071
:1022B00038010010FC1800103C0100101803001039
:1022C000140000101800001000C0092010000010B9
:1022D000AE420ADA149A129901EB020000EBD071B7
:1022E000C1F34F01FE4A118009E0DDE9131201EB51
:1022F000020000EBD071C1F34F01F94A1180DDE912
:10230000091001440B9808444FF0030190FBF1F0D1
:102310001290DDE90C1001440E9808444FF00301BF
:1023200090FBF1F01390DDE90F100144119808447F
:102330004FF0030190FBF1F01490DDE91201A0EBE6
:102340000104DDE91301A0EB010512991498A0EB3B
:102350000106002C01DD204601E0C4F10000044626
:10236000002D01DD284601E0C5F100000546002EE4
:1023700001DD304601E0C6F100000646022C05DD15
:10238000022D03DD022E01DD002072E7AC4217DAD8
:10239000A6420ADA149A129901EB020000EBD071FE
:1023A000C1F34F01CE4A518021E0DDE9121201EB69
:1023B000020000EBD071C1F34F01C94A518016E011
:1023C000AE420ADA149A129901EB020000EBD071C6
:1023D000C1F34F01C24A518009E0DDE9131201EB5C
:1023E000020000EBD071C1F34F01BD4A5180BC48DF
:1023F0003FE700203DE72DE9F04705460C469046B3
:102400004FF0000921882289A1EB0201E38862894B
:10241000A3EB020201FB02F1A2882389A2EB0303D2
:1024200066886289A6EB020203FB121015F01DFB01
:10243000C8E90C0100221346D8E90C61304615F0BA
:102440007BFA02D14FF0010989E029882A89891A8B
:10245000E38862899A1A5143AA882B89D31A66881D
:102460006289B21A03FB121015F0FFFAC8E90001E5
:1024700021882289891AAA882B89D21A51432A884D
:10248000D21AA38826899B1B02FB131015F0EDFAC4
:10249000C8E902012189AA885143A2882B8902FB3D
:1024A00013116288514322885A4323892E8803FBE3
:1024B0001623E28803FB0212A18871432388AE88A9
:1024C00003FB1613618903FB012015F0CEFAC8E95E
:1024D00004016A886989511AE38862899A1A51430A
:1024E000EB886A899B1A66886289B21A03FB12100C
:1024F00015F0BBFAC8E9060121882289891AEB8800
:102500006A899A1A51436B886A899A1AA38826891C
:102510009B1B02FB131015F0A8FAC8E908012189DA
:10252000EA885143A3886A8903FB121162885143E8
:1025300022886B895A4323896E8803FB1623E2881D
:1025400003FB0213A18871432688EA8806FB121256
:10255000618902FB013015F088FAC8E90A01484692
:10256000BDE8F0872DE9F04F8BB080460D4614464C
:102570004FF0000B5A461346D4E90C61304615F073
:10258000DBF95CD0688815F087FA8146D4E90263EC
:10259000324615F0D1FACDE90201288815F07CFA0F
:1025A0008146D4E90063324615F0C6FACDE9000150
:1025B000DDE9022314F0ACFFCDE90401D4E90463A2
:1025C000324614F0A5FFCDE90601D4E90C6332468A
:1025D00015F05AF8CDE9080115F01AFAA8F800002C
:1025E000688815F059FA8146D4E90863324615F037
:1025F000A3FACDE90201288815F04EFA8146D4E904
:102600000663324615F098FACDE90001DDE90223B0
:1026100014F07EFFCDE90401D4E90A63324614F0D8
:1026200077FFCDE90601D4E90C63324615F02CF8AA
:10263000CDE9080115F0ECF9A8F8020001E04FF02F
:10264000010B58460BB0BDE8F08F10B540F65C505A
:102650002449088040F2813048804FF43F708880E0
:102660004FF455711F48C18040F29F601D49088199
:1026700040F669411B4841811B4A01461B48FFF750
:10268000BAFE10BD13B51A480088BDF80010884284
:1026900041DBBDF80000BDF8041008441449098866
:1026A000884238DB12484088BDF80210884232DB8D
:1026B000BDF80200BDF8061008440D49498888425B
:1026C00029DB40F26E400B49088140F2B6520A49BC
:1026D0004FF0000006F0C3FF4FF0010007490FE084
:1026E000100000102A030010E00200100400001087
:1026F0001400001000C00840D18D0100CA00001075
:102700000880064806F0C2FA00BF05480088012884
:10271000FBD001201CBD0020FCE70000A0860100CA
:10272000CA00001001464FF0000005290ED2DFE874
:1027300001F0030507090B00FB4808E0FB4806E031
:10274000FB4804E0FB4802E0FB4800E000BF00BF9C
:10275000704701464FF0000005290ED2DFE801F076
:10276000030507090B00F04808E0F04806E0F048D0
:1027700004E0F04802E0F04800E000BF00BF70470E
:1027800001464FF0000005290ED2DFE801F00305F5
:1027900007090B00E44808E0E44806E0E44804E0E8
:1027A000E44802E0E44800E000BF00BF70472DE9C4
:1027B000F04107460D4616463846FFF7B3FF04467C
:1027C0004CB126B1206840EA0500206003E0206893
:1027D00020EA05002060BDE8F08170B506460C4691
:1027E0003046FFF79FFF054605B1AC6170BD70B57F
:1027F00006460C463046FFF795FF054605B1EC61ED
:1028000070BD70B505462846FFF78CFF04460CB135
:10281000606970BD0020FCE718B912B9C74B196098
:1028200014E0022803D112B9C54B19600EE020B99B
:10283000012A02D1C34B196008E0022804D1012A01
:1028400002D1C14B196001E000BFFEE770470346AB
:102850003BB932B9BD48006820FA01F000F0010030
:102860007047022B07D132B9B948006820FA01F04D
:1028700000F00100F4E743B9012A06D1B548006829
:1028800020FA01F000F00100EAE7022B08D1012A4A
:1028900006D1B148006820FA01F000F00100DFE73E
:1028A00000BFFEE710B9AD4A116006E0022802D170
:1028B000AB4A116001E000BFFEE7704770B5044607
:1028C0000D461646324629462046FFF770FF70BD7A
:1028D00070B504460D4629462046FFF77EFF70BDC1
:1028E00070B504460D4629462046FFF780FF70BDAF
:1028F00010B504462046FFF784FF10BD70B50446AE
:102900000D461646324629462046FFF785FF70BD24
:1029100070B504460D461646324629462046FFF756
:1029200096FF70BD10B503460C4621461846FFF7CA
:10293000B9FF10BD2DE9F04107460D461646384651
:10294000FFF7F0FE04464CB126B1206940EA0500CD
:10295000206103E0206920EA05002061BDE8F081E4
:102960002DE9F04180460E4615461F464046FFF7CA
:10297000F0FE0446ACB157B126B1608840EA0500CC
:1029800060800EE0208840EA0500208009E026B142
:10299000608820EA0500608003E0208820EA0500C6
:1029A0002080BDE8F0812DE9F04180460E461546B5
:1029B0001F464046FFF7CDFE0446ACB157B126B1E5
:1029C000608A40EA050060820EE0208A40EA050045
:1029D000208209E026B1608A20EA0500608203E0D7
:1029E000208A20EA05002082BDE8F0812DE9F0412F
:1029F00007460E4614463846FFF7ABFE05461DB1A6
:102A00000EB16C8300E02C83BDE8F0812DE9F0412C
:102A100007460E4614463846FFF79BFE05461DB195
:102A20000EB1EC8300E0AC83BDE8F08170B50646E2
:102A30000D463046FFF78DFE044624B10DB1E08A05
:102A400070BDA08AFCE70020FAE72DE9F04180463E
:102A50000C4616461F464046FFF792FE05466DB1EE
:102A600037B1032C0ADC285D40EA0600285505E052
:102A7000032C03DC285D20EA06002855BDE8F08120
:102A80002DE9F04180460C4616461F464046FFF7AA
:102A900077FE0546ADB157B1032C12DC05F11000ED
:102AA000005D40EA060005F11001085509E0032C1D
:102AB00007DC05F11000005D20EA060005F11001B9
:102AC0000855BDE8F0812DE9F04107460C46154652
:102AD0003846FFF755FE064626B1032C02DC06F108
:102AE00018000555BDE8F0812DE9F04107460C4678
:102AF00015463846FFF744FE064626B1032C02DC95
:102B000006F11C000555BDE8F08170B506460C467F
:102B10003046FFF735FE05462DB1032C22DC05F1CA
:102B20001400005D70BD1DE000C0092020C0092018
:102B300040C0092060C0092080C009209080024068
:102B4000B080024094800240B48002408480024001
:102B5000A480024088800240A88002408C8002400D
:102B6000AC800240002070BDF0B504460B4615460F
:102B700019464FEA4400454A102903D3A1F1100138
:102B800000F1010052F820604FEA410C4FF00307BA
:102B900007FA0CF726EA070642F8206052F8206090
:102BA0004FEA410705FA07F746EA070642F82060B0
:102BB000F0BDF0B504460B46154619464FEA4400F1
:102BC000334A102903D3A1F1100100F1010052F89A
:102BD00020604FEA410C4FF0030707FA0CF726EA92
:102BE000070642F8206052F820604FEA410705FAD4
:102BF00007F746EA070642F82060F0BD30B50B46FD
:102C00002449012A0AD151F820404FF0010505FA64
:102C100003F544EA050441F8204009E051F820405A
:102C20004FF0010505FA03F524EA050441F82040B8
:102C300030BD012806D11549896A41F00801134ABF
:102C4000916206E028B91149896A21F008010F4A0A
:102C500091627047012801D14FF0050209B94FF088
:102C60000A020A4BDA67704710B50446A278617809
:102C70002078FFF779FFE27861782078FFF799FFF5
:102C8000227961782078FFF7B9FF10BD00C00240BB
:102C900040C0024068C0024010B50A46202801D258
:102CA000034601E0A0F120031946202814D24C4B22
:102CB0001B684FF0030404FA01F423EA0403494CAF
:102CC000C4F8A831464B1B6802FA01F443EA040336
:102CD000444CC4F8A83113E0434B1B684FF0030485
:102CE00004FA01F423EA04033E4CC4F8AC313E4B31
:102CF0001B6802FA01F443EA04033A4CC4F8AC310D
:102D000010BD0146202903D20A46354B186803E05E
:102D1000A1F12002344B186820FA02F303F00300FB
:102D2000704770B50646314804683046FFF7E9FF42
:102D3000054635B1012D07D0022D08D0032D0CD149
:102D400008E04FF0040508E04FF0010505E04FF002
:102D5000020502E04FF0080500BF00BFB4FBF5F428
:102D6000204670BD01290AD1214A1268214B00EA90
:102D7000030342EA03021B4BC3F8C4200AE049B92B
:102D80001B4A12681B4B23EA000302EA0302154B9D
:102D9000C3F8C42070474FF000001749086030BFE7
:102DA00070474FF00400154908604FF008001249C1
:102DB000086030BF70474FF00400104908604FF0C2
:102DC00009000D49086030BF70474FF004000B49FF
:102DD00008604FF003000849086030BF70470000EA
:102DE000A8C10F4000C00F40ACC10F400000001050
:102DF000C4C00F40DEF7EFEFC0C00F4010ED00E0A1
:102E00002DE9F04704468846F848844202D0F84845
:102E1000844200D103E04321F6A0FDF71DFAF348F8
:102E2000844204D12A20FFF77CFF074609E0F048DE
:102E3000844204D11420FFF774FF074601E0BDE887
:102E4000F0874FF000054FF0FF394FF002060FE01A
:102E500005F1010000FB06F0B7FBF0F9C14507D909
:102E600005F10105FF2D03D94FF0000506F102061B
:102E7000C145EDD82068C0B2206020684FF6FF71D0
:102E800001EA052140EA01002060F0B2206100BFA4
:102E9000D5E770B504460D46D448844202D0D448E4
:102EA000844200D103E08121D2A0FDF7D5F9CF48BB
:102EB000844204D101214805FFF754FF08E0CC48C3
:102EC000844204D101210015FFF74CFF00E070BDE2
:102ED000D5E9010140EA0100296940EA01002968B9
:102EE00040EA010086B22660E86800F00F066660DE
:102EF00020466969FFF784FF00BFE8E710B5044684
:102F0000BA48844202D0BA48844200D103E0A821E2
:102F1000B8A0FDF7A1F9B548844205D100214FF4CE
:102F20000010FFF71FFF06E0B148844203D10021E3
:102F30000015FFF717FF10BD10B50446AB488442DB
:102F400002D0AB48844200D103E0C021A9A0FDF724
:102F500083F9206800F00F0010BD4FF000014160C0
:102F60008160A84941614FF0070101604FF0000105
:102F7000C1600161704770B504460D469B488442AC
:102F800002D09B48844200D103E0E52199A0FDF7DF
:102F900063F90DB1012D00D103E0E62195A0FDF705
:102FA0005BF9012D04D1606840F00200606003E02D
:102FB000606800F00D00606070BD70B504460D469D
:102FC0008A48844202D08A48844200D103E0FE212C
:102FD00088A0FDF741F90DB1012D00D103E0FF21DB
:102FE00084A0FDF739F9012D04D1606840F001009B
:102FF000606003E0606800F00E00606070BD70B556
:1030000004460D467948844202D07948844200D172
:1030100004E04FF48D7177A0FDF71EF90DB1012D7D
:1030200000D104E040F21B1172A0FDF715F9012D4B
:1030300004D1606800F00700606003E0606840F061
:103040000800606070BD70B504460D466748844254
:1030500002D06748844200D104E04FF49A7165A021
:10306000FDF7FAF8A56070BD10B504465F488442CC
:1030700002D05F48844200D104E04FF4A2715DA009
:10308000FDF7EAF8A06880B210BD2DE9F74F82B0D5
:1030900006460C464FF00000E0606060606103E0AF
:1030A0003046FFF7E1FF0746F06810F0040FF7D154
:1030B0004FF0030030623046FFF73EFF082802DD84
:1030C0004FF0010501E04FF00005049800287DD184
:1030D00025B9D4F80890D4F800A003E0D4F808B0DB
:1030E0002068019067E0F06810F0020F33D021698A
:1030F000606888422FD0206898B945B9FF213046D2
:10310000FFF7A1FF606800F10100606023E04FF667
:10311000FF713046FFF797FF606800F102006060C2
:1031200019E05DB99AF800103046FFF78CFF0AF1FC
:10313000010A606800F1010060600CE001980188FC
:103140003046FFF780FF019800F1020001906068AF
:1031500000F102006060D6F8188018F0010F07D067
:1031600048F4007060614FF0FF3005B0BDE8F08FAB
:1031700019E03046FFF778FF0746A06848B125B947
:1031800089F8007009F1010903E0ABF800700BF158
:10319000020B25B9E06800F10100E06003E0E0689F
:1031A00000F10200E060F06810F0040F03D0D4E9F1
:1031B00003018842DDD121696068884293D1D4E956
:1031C000030188428FD14FF4807000E00AE0606113
:1031D000206808B16068C8E7A06808B1E068C4E783
:1031E0000020C2E7049801287AD165E000800840F9
:1031F000000003406C7063313778785F7373702E12
:103200006300000040420F00206898B945B9FF21D3
:103210003046FFF718FF606800F1010060601FE0B2
:103220004FF6FF713046FFF70EFF606800F10200B5
:10323000606015E055B9D4E90002815C3046FFF7C3
:1032400002FF606800F10100606009E0D4E900025B
:10325000815A3046FFF7F7FE606800F102006060B7
:10326000D6F8188018F0010F05D048F4007060619E
:103270004FF0FF3079E717E03046FFF7F5FE0746DD
:10328000A06838B11DB9D4E902128F5402E0D4E924
:1032900002128F5225B9E06800F10100E06003E0FE
:1032A000E06800F10200E060F06810F0040F03D065
:1032B000D4E903018842DFD1F06810F0020F03D097
:1032C0002169606888429FD1D4E90301884203D113
:1032D00021696068884204D04FF00F00706103E0FC
:1032E00004E04FF48070606100203EE74FF0FF3053
:1032F0003BE770B505460C467A48854202D07A48CD
:10330000854200D105E04FF40571AFF21810FCF7CB
:10331000A3FF012C07D0022C05D0042C03D0082CCD
:1033200001D0102C00D105E040F21521AFF23C1085
:10333000FCF792FFE868204201D0012070BD002018
:10334000FCE770B504460D4616466648844202D036
:103350006548844200D105E04FF40B71AFF26C1068
:10336000FCF77AFF012E04D1606940EA0500606134
:1033700007E060694FF00F0121EA050100EA010052
:10338000606170BD70B505460C465648854202D056
:103390005548854200D105E040F24921AFF2AC101A
:1033A000FCF75AFF012C05D0022C03D0042C01D0CD
:1033B000082C00D105E040F24A21AFF2C810FCF71A
:1033C0004BFFA869204201D0012070BD0020FCE71E
:1033D00010B504464348844202D04348844200D199
:1033E00005E04FF41671AFF2F410FCF735FFA06959
:1033F00010BD70B505460C463A48854202D03A48A1
:10340000854200D105E040F26D21AFF21820FCF7B3
:1034100023FF012C05D0022C03D0042C01D0082C52
:1034200000D105E040F26E21AFF23820FCF714FF26
:10343000E869204201D0012070BD0020FCE770B592
:1034400004460D462748844202D02748844200D1D2
:1034500005E040F28121AFF26420FCF7FDFE012D72
:1034600001D0022D00D105E040F28221AFF27C2094
:10347000FCF7F2FE256270BD70B504460D46164697
:103480001848844202D01848844200D105E040F236
:103490009721AFF2A020FCF7DFFE022D01D0012D15
:1034A00000D105E04FF42671AFF2B820FCF7D4FE4E
:1034B0000EB1012E00D105E040F29921AFF2CC20EF
:1034C000FCF7CAFE012E04D1606A40EA0500606282
:1034D00007E0606A4FF0030121EA050100EA0100FC
:1034E000606270BD008008400000034010B5C6480F
:1034F0004068C4B214F0070F75D1E0100C2872D2E6
:10350000DFE800F071061F32416087BAC3D5E2FAE6
:103510004FF00000BD490860BD490860BB4908681C
:1035200000F10101B94A1160BA49095CB64A9160DB
:103530004FF00100B84908604FF02800114688613B
:1035400007E14FF00000B2490860B049086800F197
:103550000101AE4A1160AF49095CAB4A91604FF07E
:10356000280011468861F4E0A849086800F10101CB
:10357000A64A1160A749095CA34A91604FF0080070
:1035800011468861E5E0A548007801280AD19F49E5
:10359000086800F101019D4A11609E49095C9A4A40
:1035A00091600AE04FF00800974988614FF01000E1
:1035B000086040F20310984908604FF008009249F3
:1035C0008861C6E0914800689549096888420BD235
:1035D0008E49086800F101018C4A11608D49095C2F
:1035E000894A916010E0A8E08E48006820B14FF051
:1035F00020008549086007E040F201108649086014
:103600004FF01000804908604FF008007E49886143
:103610009FE082480078012821D17C4800688049D9
:10362000096888420AD27949086800F10101774A9D
:1036300011607849095C744A916018E07948006823
:1036400020B14FF020007049086010E040F20110F6
:10365000714908604FF010006B49086007E04FF0B7
:103660001000694908604FF481706B4908604FF0A1
:103670000800654988616CE04FF482706649086013
:103680004FF008006049886163E0664800680128DF
:1036900004D14FF004005C49886103E04FF004005E
:1036A000594908604FF008005749886151E04FF0D0
:1036B00010005549086040F20310574908604FF068
:1036C00008005149886144E04F498968CAB25049AD
:1036D000086800F101014E4B196053490A545148E2
:1036E0000068A0F1010019460968884205D94FF029
:1036F00004004549086004E008E04FF00400424936
:1037000088614FF008004049886122E03E4989689D
:10371000CAB23F49086800F101013D4B19604249B6
:103720000A5440F201103C4908604FF0100036493D
:1037300008604FF0080088610BE04FF0100032493C
:1037400008603AA004F02BFD4FF008002E49886174
:1037500000BF00BF10BD10B53B48006840F08000BE
:103760003A49C1F8C4000846D0F8A80120F4404006
:10377000C1F8A8013648406820F0707034494860AC
:103780000846406840F0A07048601F48806940F0DB
:103790007C001D4988612E48C06F20F005002C492F
:1037A000C8674FF4FA501849486108614FF00A00A1
:1037B0004FF0040100280ADA4FEAC1624FEA1264AE
:1037C000244A00F00F03A3F10403D45405E04FEAA8
:1037D000C1624FEA1263204A135400BF4FF00A003F
:1037E0004FF0010101FA00F14FEA50124FF0E023CF
:1037F00003EB8202C2F8001100BF0348006840F0EA
:1038000040000149086010BD00C001403C000010AC
:103810003800001036030010300000104000001087
:1038200048000010440000105903001053697475DB
:103830006163696F6E20646573636F6E6F63696443
:1038400061204932430A0D00C4C00F4000C00F4040
:1038500000C0024018ED00E000E400E0024600BFB6
:10386000FE4800680228FBD0FC4800680128F7D019
:103870004FF00200F94B18604FF00300F84B18604E
:103880004FF00000F74B18604FF04200F64B1870F5
:103890001846427081704FF00100F44B18704FF0E1
:1038A0000400F34B98611846006840F0200018604F
:1038B0004FF000007047014600BFE848006802284A
:1038C000FBD0E64800680128F7D04FF00200E34A39
:1038D0001060E34A10604FF00000E24A10604FF0C1
:1038E0004200E14A1070104641704FF04300907062
:1038F0004FF00100DD4A10704FF00400DC4A906187
:103900001046006840F02000106000BFD3480068F7
:103910000228FBD0D14800680128F7D04FF0020000
:10392000CE4A10604FF00100CD4A1060CD4A1060C1
:103930004FF04300CC4A10704FF00100CB4A10709A
:103940004FF00400CA4A90611046006840F0200021
:10395000106000BFC14800680228FBD0BF48006863
:103960000128F7D00020704710B5FFF7F4FEC148DA
:10397000406820F44020BF494860BF48006820F0FC
:103980000070BD490860BD48006840F00070BC4947
:10399000C1F894004FF015004FF0060100280ADA34
:1039A0004FEAC1624FEA1264B64A00F00F03A3F176
:1039B0000403D45405E04FEAC1624FEA1263B24AED
:1039C000135400BF4FF015004FF0010101FA00F150
:1039D0004FEA50124FF0E02303EB8202C2F80011CD
:1039E00000BFA448406820F04060A2494860A24857
:1039F000006840F00050A04908600846806940F027
:103A0000005088610846006940F0005008619948FC
:103A1000406820F04050974948609748006840F05F
:103A20008040954908600846806940F08040886180
:103A30000846006940F0804008618E48406820F4E4
:103A400040308C4948608C48006840F080708A495A
:103A500008600846C06940F08070C8618548C06849
:103A600020F030008349C8600846C06820F0C000DC
:103A7000C8600846C06820F44070C8600846C06846
:103A800020F44060C8600846C06820F44050C86018
:103A90000846C06820F44040C8600846C06820F46A
:103AA0004030C8600846C06820F44020C8607248B2
:103AB000006A20F48020704908620846006A20F4F9
:103AC000002008620846006A20F480100862084658
:103AD000006A20F4001008620846006A20F48000A2
:103AE00008620846006A20F4000008620846006A7E
:103AF00020F0807008620846006A20F000700862BA
:103B00004FF004014FF03A00FFF7A8FE902140204B
:103B1000FFF7A4FE04211220FFF7A0FE802132202F
:103B2000FFF79CFE16211720FFF798FE04211820AE
:103B3000FFF794FE00210320FFF790FE03211920D8
:103B4000FFF78CFE7B211A20FFF788FE0121112050
:103B5000FFF784FE4A216B20FFF780FE0C21084608
:103B6000FFF77CFE19213E20FFF778FE0021702030
:103B7000FFF774FE01217120FFF770FE1121722002
:103B8000FFF76CFEF1217320FFF768FE0221A220EF
:103B9000FFF764FE20217A20FFF760FE1C217B20C6
:103BA000FFF75CFE28217C20FFF758FE3C217D209A
:103BB000FFF754FE55217E20FFF750FE68217F203D
:103BC000FFF74CFE76218020FFF748FE8021812000
:103BD000FFF744FE88218220FFF740FE8F218320DB
:103BE000FFF73CFE96218420FFF738FEA3218520B5
:103BF000FFF734FEAF218620FFF730FEC421872077
:103C0000FFF72CFED7218820FFF728FEE821892026
:103C1000FFF724FEE0211320FFF720FE00210846D5
:103C2000FFF71CFE00211020FFF718FE00210D20D9
:103C3000FFF714FE20211420FFF710FE0521A52018
:103C4000FFF70CFE0721AB20FFF708FE75212420AB
:103C5000FFF704FE6321252018E00000300000106B
:103C6000480000104400001036030010400000100F
:103C700000C0014000C0024000C009209480024002
:103C80000080024018ED00E000E400E0FFF7E6FDF0
:103C9000A5212620FFF7E2FD78219F20FFF7DEFD1A
:103CA0006821A020FFF7DAFD0321A120FFF7D6FD50
:103CB000DF21A620FFF7D2FDDF21A720FFF7CEFDF1
:103CC000F021A820FFF7CAFD9021A920FFF7C6FD2B
:103CD0009421AA20FFF7C2FDE5211320FFF7BEFDC6
:103CE00061210E20FFF7BAFD4B210F20FFF7B6FD33
:103CF00002211620FFF7B2FD37211E20FFF7AEFD8F
:103D000002212120FFF7AAFD91212220FFF7A6FD25
:103D100007212920FFF7A2FD0B213320FFF79EFD8D
:103D20000B213520FFF79AFD1D213720FFF796FD67
:103D300071213820FFF792FD2A213920FFF78EFDEF
:103D400078213C20FFF78AFD40214D20FFF786FDBA
:103D500020214E20FFF782FD5D216920FFF77EFDC7
:103D600019217420FFF77AFD4F218D20FFF776FD92
:103D700000218E20FFF772FD00218F20FFF76EFDDE
:103D800000219020FFF76AFD00219120FFF766FDDA
:103D900000219220FFF762FD00219620FFF75EFDD3
:103DA00080219A20FFF75AFD8421B020FFF756FDAD
:103DB0000C21B120FFF752FD0E21B220FFF74EFD7E
:103DC0008221B320FFF74AFD0A21B820FFF746FD04
:103DD00004216420FFF742FD20216520FFF73EFD0E
:103DE00005216620FFF73AFD04219420FFF736FDF8
:103DF00008219520FFF732FD0A216C20FFF72EFDE8
:103E000055216D20FFF72AFD80214F20FFF726FD69
:103E100080215020FFF722FD00215120FFF71EFDD9
:103E200022215220FFF71AFD5E215320FFF716FDD5
:103E300080215420FFF712FD02211520FFF70EFD0F
:103E4000012003F05AFC03F0C7FB03F0DCFB142055
:103E500003F0B8FC012003F0B8FE10BD704770B548
:103E60004FF000052C464FF0EF0340F23F124FF0A9
:103E700000010846FDF718FF00210846FCF7F1FD98
:103E8000FE48006920F00050FC49086108460069BE
:103E900020F0804008610846006920F080700861C9
:103EA0000846C06940F00050C8610846806940F08B
:103EB000807088610846C06940F08070C86108461B
:103EC000806940F0807088610846C06940F0807069
:103ED000C8610846806940F0807088610846806942
:103EE00040F0005088610846006940F000500861C9
:103EF0000846006940F080400861E148006800F130
:103F00000100DF490860DD48806940F08070DB49CE
:103F100088610846406BC0F387404FEA002408469A
:103F2000C06940F08070C8610846806940F08070C8
:103F300088610846406BC0F3874040EA04044FF4B0
:103F40008070C8654FF02050C8634FF0220048656C
:103F50004FF0000048614FF08050C86388634FF411
:103F60008070C8654FF000608863E0B248654FF428
:103F7000FF0000EAC41048614FF08050C8638863B6
:103F800087E2BE48806940F08070BC49886108467D
:103F9000406B4FF4FF0101EAD000B8494861084680
:103FA000806940F0807088610846406BC0F38740AC
:103FB00048650846C06940F08070C8614FF0805085
:103FC000C86388630846806940F08070886108464D
:103FD000406B4FF4FF0101EAD000A8494861084650
:103FE000806940F0807088610846406BC0F387406C
:103FF00048650846C06940F08070C8614FF0805045
:10400000C86388630846806940F08070886108460C
:10401000406B4FF4FF0101EAD0009849486108461F
:10402000806940F0807088610846406BC0F387402B
:1040300048650846C06940F08070C8614FF0805004
:10404000C86388630846806940F0807088610846CC
:10405000406B4FF4FF0101EAD000884948610846EF
:10406000806940F0807088610846406BC0F38740EB
:1040700048650846C06940F08070C8614FF08050C4
:10408000C86388630846806940F08070886108468C
:10409000406B4FF4FF0101EAD000784948610846BF
:1040A000806940F0807088610846406BC0F38740AB
:1040B00048650846C06940F08070C8614FF0805084
:1040C000C86388630846806940F08070886108464C
:1040D000406B4FF4FF0101EAD0006849486108468F
:1040E000806940F0807088610846406BC0F387406B
:1040F00048650846C06940F08070C8614FF0805044
:10410000C86388630846806940F08070886108460B
:10411000406B4FF4FF0101EAD0005849486108465E
:10412000806940F0807088610846406BC0F387402A
:1041300048650846C06940F08070C8614FF0805003
:10414000C86388630846806940F0807088610846CB
:10415000406B4FF4FF0101EAD0004849486108462E
:10416000806940F0807088610846406BC0F38740EA
:1041700048650846C06940F08070C8614FF08050C3
:10418000C86388630846806940F08070886108468B
:10419000406B4FF4FF0101EAD000384948610846FE
:1041A000806940F0807088610846406BC0F38740AA
:1041B00048650846C06940F08070C8614FF0805083
:1041C000C86388630846806940F08070886108464B
:1041D000406B4FF4FF0101EAD000284948610846CE
:1041E000806940F0807088610846406BC0F387406A
:1041F00048650846C06940F08070C8614FF0805043
:10420000C86388630846806940F08070886108460A
:10421000406B4FF4FF0101EAD0001849486108469D
:10422000806940F0807088610846406BC0F3874029
:1042300048650846C06940F08070C8614FF0805002
:10424000C86388630846806940F0807088610846CA
:10425000406B4FF4FF0101EAD0000849486108466D
:10426000806940F0807088610846406BC0F38740E9
:1042700048650846C06940F0807003E000C009202E
:104280005C000010C8614FF08050C8638863084626
:10429000806940F0807088610846406B4FF4FF01F0
:1042A00001EAD0007D4948610846806940F080708D
:1042B00088610846406BC0F3874048650846C0697E
:1042C00040F08070C8614FF08050C8638863084632
:1042D000806940F0807088610846406B4FF4FF01B0
:1042E00001EAD0006D4948610846806940F080705D
:1042F00088610846406BC0F3874048650846C0693E
:1043000040F08070C8614FF08050C86388630846F1
:10431000806940F0807088610846406B4FF4FF016F
:1043200001EAD0005D4948610846806940F080702C
:1043300088610846406BC0F3874048650846C069FD
:1043400040F08070C8614FF08050C86388630846B1
:10435000806940F0807088610846406B4FF4FF012F
:1043600001EAD0004D4948610846806940F08070FC
:1043700088610846406BC0F3874048650846C069BD
:1043800040F08070C8614FF08050C8638863084671
:10439000806940F0807088610846406B4FF4FF01EF
:1043A00001EAD0003D4948610846806940F08070CC
:1043B00088610846406BC0F3874048650846C0697D
:1043C00040F08070C8614FF08050C8638863084631
:1043D000806940F0807088610846406B4FF4FF01AF
:1043E00001EAD0002D4948610846806940F080709C
:1043F00088610846406BC0F3874048650846C0693D
:1044000040F08070C8614FF08050C86388630846F0
:10441000806940F0807088610846406B4FF4FF016E
:1044200001EAD0001D4948610846806940F080706B
:1044300088610846406BC0F3874048650846C069FC
:1044400040F08070C8614FF08050C86388630846B0
:10445000806940F0807088610846406B4FF4FF012E
:1044600001EAD0000D4948610846806940F080703B
:1044700088610846406BC0F3874048650846C069BC
:1044800040F08070C8614FF08050C863886305F1C8
:104490000105B5F5706FFFF474AD70BD00C0092063
:1044A0002DE9F05F06460F464FF000084546A94645
:1044B0002C4600BF00BF4FF0140097FBF0F0C0F196
:1044C0000C0000EB80004FEA800A4FF0140096FBCE
:1044D000F0FB4FF000010846FCF7C3FAAAF1010017
:1044E00083B20BEB8B00012101EB8000FE490988B0
:1044F000081A82B200210846FDF7D6FBFB48006986
:1045000020F00050F94908610846006920F0804019
:1045100008610846006920F0807008610846C0699B
:1045200040F00050C8610846806940F080708861A2
:104530000846C06940F08070C8610846806940F054
:10454000807088610846C06940F08070C861084684
:10455000806940F0807088610846806940F00050B2
:1045600088610846006940F000500861084600690B
:1045700040F080400861DE48006800F10100DC493D
:10458000086087E24FF0000592E1D848806940F06A
:104590008070D64988610846C06940F08070C86163
:1045A0000846806940F0807088610846C06940F024
:1045B0008070C8610846806940F080708861084654
:1045C000C06940F08070C8610846806940F0807022
:1045D00088610846C06940F08070C86108468069FB
:1045E00040F0807088610846C06940F08070C86102
:1045F0000846806940F0807088610846C06940F0D4
:104600008070C8610846806940F080708861084603
:10461000C06940F08070C8610846806940F08070D1
:1046200088610846C06940F08070C86108468069AA
:1046300040F0807088610846C06940F08070C861B1
:104640000846806940F0807088610846C06940F083
:104650008070C8610846806940F0807088610846B3
:10466000C06940F08070C8610846806940F0807081
:1046700088610846C06940F08070C861084680695A
:1046800040F0807088610846C06940F08070C86161
:104690000846806940F0807088610846C06940F033
:1046A0008070C8610846806940F080708861084663
:1046B000C06940F08070C8610846806940F0807031
:1046C00088610846C06940F08070C861084680690A
:1046D00040F0807088610846C06940F08070C86111
:1046E0000846806940F0807088610846C06940F0E3
:1046F0008070C8610846806940F080708861084613
:10470000C06940F08070C8610846806940F08070E0
:1047100088610846C06940F08070C86108468069B9
:1047200040F0807088610846C06940F08070C861C0
:104730000846806940F0807088610846C06940F092
:104740008070C8610846806940F0807088610846C2
:10475000C06940F08070C8610846806940F0807090
:1047600088610846C06940F08070C8610846806969
:1047700040F0807088610846C06940F08070C86170
:104780000846806940F0807088610846C06940F042
:104790008070C8610846806940F080708861084672
:1047A000C06940F08070C8610846806940F0807040
:1047B00088610846C06940F08070C8610846806919
:1047C00040F0807088610846C06940F08070C86120
:1047D0000846806940F0807088610846C06940F0F2
:1047E0008070C8610846806940F080708861084622
:1047F000C06940F08070C8610846806940F08070F0
:1048000088610846C06940F08070C86108468069C8
:1048100040F0807088610846C06940F08070C861CF
:104820000846806940F0807088610846C06940F0A1
:104830008070C8610846806940F0807088610846D1
:10484000C06940F08070C8610846806940F080709F
:1048500088610846C06940F08070C8610846806978
:1048600040F0807088610846C06940F08070C8617F
:104870000846806940F0807088610846C06940F051
:104880008070C8610846806940F080708861084681
:10489000C06940F08070C8610846806940F080704F
:1048A00088610846C06940F08070C86105F1010563
:1048B0005D45FFF46AAEE8E04FF00009DFE00B4829
:1048C000806940F08070094988610846406BC0F3F8
:1048D00087404FEA00240846C06940F08070C861F4
:1048E0000846806906E000008E00001000C0092024
:1048F0005C00001040F0807088610846406BC0F397
:10490000874040EA04044FF48070C8654FF020509F
:10491000C8634FF0220048654FF0000048614FF037
:104920008050C86388634FF48070C865C8654FF0D5
:1049300000608863E0B248654FF4FF0000EAC410ED
:1049400048614FF08050C86388630846806940F032
:10495000807088610846406BC0F387404FEA0024AE
:104960000846C06940F08070C8610846806940F020
:10497000807088610846406BC0F3874040EA0404B9
:10498000E0B248654FF4FF0000EAC41048614FF000
:104990008050C86388630846806940F080708861F1
:1049A0000846406BC0F387404FEA00240846C069C0
:1049B00040F08070C8610846806940F0807088616E
:1049C0000846406BC0F3874040EA0404E0B2486503
:1049D0004FF4FF0000EAC41048614FF08050C863F4
:1049E00088630846806940F0807088610846406BA3
:1049F000C0F387404FEA00240846C06940F0807049
:104A0000C8610846806940F0807088610846406B44
:104A1000C0F3874040EA0404E0B248654FF4FF0069
:104A200000EAC41048614FF08050C86388630846AC
:104A3000806940F0807088610846406BC0F3874011
:104A40004FEA00240846C06940F08070C8610846FB
:104A5000806940F0807088610846406BC0F38740F1
:104A600040EA0404E0B248654FF4FF0000EAC410D5
:104A700048614FF08050C863886309F10109B9F1BA
:104A8000040FFFF41CAF05F10105102DFFF414AF66
:104A900008F10108D045FFF475ADBDE8F09F0000B6
:104AA00030B54FF0000213461446FD4D2C60104601
:104AB00022E04FF000011AE0FA4C04EB401434F805
:104AC000114004FB0033F74C04EB401434F8114060
:104AD00004FB0122F34C04EB401434F81140F04D78
:104AE0002D682C44EE4D2C6001F10104A1B2102977
:104AF000E2DB00F10104A0B20C28DADB02EB820455
:104B00004FEA84144FEA1414E54D2D68B4FBF5F414
:104B1000E54D2C60C3EB03144FEA04144FF00C0571
:104B2000B4FBF5F4DE4D2D68B4FBF5F4DF4D2C60DD
:104B300030BD2DE9F0434FF0000146E04FF000009A
:104B40003DE04FF0000334E04FF000022BE0A1EB1A
:104B5000030C0CFB0CFCA0EB0208A0EB020908FB09
:104B600009CCDFF84C83B8F800800CFB08FC1FFA76
:104B70008CF4A4B1DFF82CC30CEB411C3CF810C042
:104B80009CFBF4FCDFF81C8308EB431838F8128018
:104B9000C444DFF8108308EB431828F812C002F170
:104BA000010C1FFA8CF2102AD1DB03F1010C1FFA61
:104BB0008CF30C2BC8DB00F1010C1FFA8CF01028D1
:104BC000BFDB01F1010C1FFA8CF10C29B6DB4FF0B1
:104BD000000739461CE04FF0000013E0DFF8C4C2C4
:104BE0000CEB411C3CF810C0BC4507DDDFF8B4C23B
:104BF0000CEB411C3CF8107005460E4600F1010C10
:104C00001FFA8CF01028E9DB01F1010C1FFA8CF17E
:104C10000C29E0DBC6EB061C4FEA0C1C4FF00C081D
:104C20009CFBF8FCDFF88482C8F800C005EB85081F
:104C30004FEA881C4FEAEC780CEB18784FEA2818FA
:104C4000DFF86492C9F80080BDE8F0832DE9F843ED
:104C500007464FF000044FF0EF0340F23F124FF0D1
:104C600000010846FDF720F800210846FBF7F9FE91
:104C70009048006920F000508E490861084600699C
:104C800020F0804008610846006920F080700861CB
:104C90000846C06940F00050C8610846806940F08D
:104CA000807088610846C06940F08070C86108461D
:104CB000806940F0807088610846C06940F080706B
:104CC000C8610846806940F0807088610846806944
:104CD00040F0005088610846006940F000500861CB
:104CE0000846006940F0804008617348006800F1A0
:104CF000010071490860A0460FE04FF0000508E090
:104D00004FF00000674901EB481121F8150005F14B
:104D10000105102DF4D308F10108B8F10C0FECD304
:104D20004FF0000601F079B84FF0000901F06FB8BC
:104D30004FF0000501F066B85E48806940F0807071
:104D40005C4988610846406BC0F387404FEA002405
:104D50000846C06940F08070C8610846806940F02C
:104D6000807088610846406BC0F3874040EA0404C5
:104D70004FF48070C8654FF02050C8634FF0220098
:104D800048654FF0000048614FF08050C863886369
:104D90004FF48070C865494B1B78B3EBD42201D423
:104DA000134600E05342DFF818C19CF800C0634589
:104DB00031DA444B1B78C4F3451CB3EB0C0101D42E
:104DC0000B4600E04B42DFF8F8C09CF800C04FEA09
:104DD0004C0C63451FDA04F01F03DFF8ECC09CF8AD
:104DE00000C0BCEB030001D4034600E04342DFF8FF
:104DF000D0C09CF800C063450DDA2A4800EB46108D
:104E000030F8150000F10100264901EB461121F8A8
:104E100015004FF478444FF480702649C8654FF070
:104E200000608863E0B248654FF4FF0000EAC410F8
:104E300048614FF08050C86388630846806940F03D
:104E4000807088610846406BC0F387404FEA0024B9
:104E50000846C06940F08070C8610846806940F02B
:104E6000807088610846406BC0F3874040EA0404C4
:104E7000124B1B78B3EBD42201D4134600E053420B
:104E8000DFF83CC09CF800C0634548DA0D4B1B7846
:104E9000C4F3451CB3EB0C0118D40B4617E000001B
:104EA000740000104C0400106C0000107000001022
:104EB0007800001000C009205C000010660000109F
:104EC0006900001067000010680000104B42DFF816
:104ED00024C49CF800C04FEA4C0C63451FDA04F070
:104EE0001F03DFF814C49CF800C0BCEB030001D41E
:104EF000034600E04342DFF8FCC39CF800C0634572
:104F00000DDAFE4800EB461030F8150000F1010004
:104F1000FA4901EB461121F815004FF47844E0B24C
:104F2000F74948654FF4FF0000EAC41048614FF0AC
:104F30008050C86388630846806940F0807088614B
:104F40000846406BC0F387404FEA00240846C0691A
:104F500040F08070C8610846806940F080708861C8
:104F60000846406BC0F3874040EA0404E54B1B78D9
:104F7000B3EBD42201D4134600E05342DFF874C3EC
:104F80009CF800C0634531DADF4B1B78C4F3451C45
:104F9000B3EB0C0101D40B4600E04B42DFF854C3E5
:104FA0009CF800C04FEA4C0C63451FDA04F01F0365
:104FB000DFF844C39CF800C0BCEB030001D40346F7
:104FC00000E04342DFF82CC39CF800C063450DDAD3
:104FD000CA4800EB461030F8150000F10100C7493F
:104FE00001EB461121F815004FF47844E0B2C449B2
:104FF00048654FF4FF0000EAC41048614FF080504C
:10500000C86388630846806940F0807088610846FC
:10501000406BC0F387404FEA00240846C06940F067
:105020008070C8610846806940F0807088610846D9
:10503000406BC0F3874040EA0404B24B1B78B3EBEB
:10504000D42201D4134600E05342DFF8A8C29CF8F2
:1050500000C0634531DAAC4B1B78C4F3451CB3EB9D
:105060000C0101D40B4600E04B42DFF888C29CF8EB
:1050700000C04FEA4C0C63451FDA04F01F03DFF851
:1050800078C29CF800C0BCEB030001D4034600E0EA
:105090004342DFF860C29CF800C063450DDA9748D0
:1050A00000EB461030F8150000F10100934901EBC8
:1050B000461121F815004FF47844E0B29049486554
:1050C0004FF4FF0000EAC41048614FF08050C863FD
:1050D00088630846806940F0807088610846406BAC
:1050E000C0F387404FEA00240846C06940F0807052
:1050F000C8610846806940F0807088610846406B4E
:10510000C0F3874040EA04047E4B1B78B3EBD42203
:1051100001D4134600E05342DFF8D8C19CF800C028
:10512000634531DA784B1B78C4F3451CB3EB0C01B3
:1051300001D40B4600E04B42DFF8B8C19CF800C038
:105140004FEA4C0C63451FDA04F01F03DFF8A8C1D7
:105150009CF800C0BCEB030001D4034600E04342CE
:10516000DFF890C19CF800C063450DDA634800EB9E
:10517000461030F8150000F10100604901EB4611BE
:1051800021F815004FF47844E0B25D4948654FF4CA
:10519000FF0000EAC41048614FF08050C863886384
:1051A0000846806940F0807088610846406BC0F313
:1051B00087404FEA00240846C06940F08070C8610B
:1051C0000846806940F0807088610846406BC0F3F3
:1051D000874040EA04044B4B1B78B3EBD42201D444
:1051E000134600E05342DFF80CC19CF800C0634551
:1051F00031DA454B1B78C4F3451CB3EB0C0101D4E9
:105200000B4600E04B42DFF8ECC09CF800C04FEAD0
:105210004C0C63451FDA04F01F03DFF8DCC09CF878
:1052200000C0BCEB030001D4034600E04342DFF8BA
:10523000C4C09CF800C063450DDA304800EB46104E
:1052400030F8150000F101002C4901EB461121F85E
:1052500015004FF47844E0B2294948654FF4FF0047
:1052600000EAC41048614FF08050C8638863084664
:10527000806940F0807088610846406BC0F38740C9
:105280004FEA00240846C06940F08070C8610846B3
:10529000806940F0807088610846406BC0F38740A9
:1052A00040EA0404174B1B78B3EBD42201D4134615
:1052B00000E05342DFF83CC09CF800C063453FDA91
:1052C000114B1B78C4F3451CB3EB0C0101D40B4606
:1052D00000E04B42DFF81CC09CF800C04FEA4C0CC9
:1052E00063452DDA04F01F03DFF80CC09CF800C002
:1052F0000CE0000069000010680000104C04001071
:1053000000C009206600001067000010BCEB03001D
:1053100001D4034600E04342DFF800C49CF800C01B
:1053200063450DDAFE4800EB461030F8150000F139
:105330000100FB4901EB461121F815004FF47844B8
:10534000E0B2F84948654FF4FF0000EAC410486134
:105350004FF08050C86388630846806940F08070D1
:1053600088610846406BC0F387404FEA0024084636
:10537000C06940F08070C8610846806940F0807064
:1053800088610846406BC0F3874040EA0404E64B5E
:105390001B78B3EBD42201D4134600E05342DFF86C
:1053A0007CC39CF800C0634531DAE04B1B78C4F342
:1053B000451CB3EB0C0101D40B4600E04B42DFF877
:1053C0005CC39CF800C04FEA4C0C63451FDA04F044
:1053D0001F03DFF85CC39CF800C0BCEB030001D4E2
:1053E000034600E04342DFF834C39CF800C0634545
:1053F0000DDACB4800EB461030F8150000F1010043
:10540000C74901EB461121F815004FF47844E0B28A
:10541000C44948654FF4FF0000EAC41048614FF0EA
:105420008050C86388630846806940F08070886156
:105430000846406BC0F387404FEA00240846C06925
:1054400040F08070C8610846806940F080708861D3
:105450000846406BC0F3874040EA0404B24B1B7817
:10546000B3EBD42201D4134600E05342DFF8ACC2C0
:105470009CF800C0634531DAAC4B1B78C4F3451C83
:10548000B3EB0C0101D40B4600E04B42DFF88CC2B9
:105490009CF800C04FEA4C0C63451FDA04F01F0370
:1054A000DFF88CC29CF800C0BCEB030001D40346BB
:1054B00000E04342DFF864C29CF800C063450DDAA7
:1054C000974800EB461030F8150000F101009449B0
:1054D00001EB461121F815004FF47844E0B29149F0
:1054E00048654FF4FF0000EAC41048614FF0805057
:1054F000C86388630846806940F080708861084608
:10550000406BC0F387404FEA00240846C06940F072
:105510008070C8610846806940F0807088610846E4
:10552000406BC0F3874040EA04047F4B1B78B3EB29
:10553000D42201D4134600E05342DFF8E0C19CF8C6
:1055400000C0634531DA794B1B78C4F3451CB3EBDB
:105550000C0101D40B4600E04B42DFF8C0C19CF8BF
:1055600000C04FEA4C0C63451FDA04F01F03DFF85C
:10557000C0C19CF800C0BCEB030001D4034600E0AE
:105580004342DFF898C19CF800C063450DDA6448D7
:1055900000EB461030F8150000F10100604901EB06
:1055A000461121F815004FF47844E0B25D49486592
:1055B0004FF4FF0000EAC41048614FF08050C86308
:1055C00088630846806940F0807088610846406BB7
:1055D000C0F387404FEA00240846C06940F080705D
:1055E000C8610846806940F0807088610846406B59
:1055F000C0F3874040EA04044B4B1B78B3EBD42242
:1056000001D4134600E05342DFF810C19CF800C0FB
:10561000634531DA454B1B78C4F3451CB3EB0C01F1
:1056200001D40B4600E04B42DFF8F0C09CF800C00C
:105630004FEA4C0C63451FDA04F01F03DFF8F0C09B
:105640009CF800C0BCEB030001D4034600E04342D9
:10565000DFF8C8C09CF800C063450DDA304800EBA5
:10566000461030F8150000F101002D4901EB4611FC
:1056700021F815004FF47844E0B22A4948654FF408
:10568000FF0000EAC41048614FF08050C86388638F
:105690000846806940F0807088610846406BC0F31E
:1056A00087404FEA00240846C06940F08070C86116
:1056B0000846806940F0807088610846406BC0F3FE
:1056C000874040EA0404184B1B78B3EBD42201D482
:1056D000134600E05342DFF844C09CF800C0634525
:1056E0003DDA124B1B78C4F3451CB3EB0C0101D41B
:1056F0000B4600E04B42DFF824C09CF800C04FEAA4
:105700004C0C63452BDA04F01F03DFF824C09CF82F
:1057100000C0BCEB03000DD403460CE06900001090
:105720004C04001000C00920660000106700001043
:10573000680000104342DFF800C49CF800C06345D5
:105740000DDAFE4800EB461030F8150000F10100BC
:10575000FA4901EB461121F815004FF47844E0B204
:10576000F74948654FF4FF0000EAC41048614FF064
:105770008050C86388630846806940F08070886103
:105780000846406BC0F387404FEA00240846C069D2
:1057900040F08070C8610846806940F08070886180
:1057A0000846406BC0F3874040EA0404E54B1B7891
:1057B000B3EBD42201D4134600E05342DFF878C3A0
:1057C0009CF800C0634531DADF4B1B78C4F3451CFD
:1057D000B3EB0C0101D40B4600E04B42DFF858C399
:1057E0009CF800C04FEA4C0C63451FDA04F01F031D
:1057F000DFF858C39CF800C0BCEB030001D403469B
:1058000000E04342DFF830C39CF800C063450DDA86
:10581000CA4800EB461030F8150000F10100C749F6
:1058200001EB461121F815004FF47844E0B2C44969
:1058300048654FF4FF0000EAC41048614FF0805003
:10584000C86388630846806940F0807088610846B4
:10585000406BC0F387404FEA00240846C06940F01F
:105860008070C8610846806940F080708861084691
:10587000406BC0F3874040EA0404B24B1B78B3EBA3
:10588000D42201D4134600E05342DFF8ACC29CF8A6
:1058900000C0634531DAAC4B1B78C4F3451CB3EB55
:1058A0000C0101D40B4600E04B42DFF88CC29CF89F
:1058B00000C04FEA4C0C63451FDA04F01F03DFF809
:1058C0008CC29CF800C0BCEB030001D4034600E08E
:1058D0004342DFF864C29CF800C063450DDA974884
:1058E00000EB461030F8150000F10100934901EB80
:1058F000461121F815004FF47844E0B2904948650C
:105900004FF4FF0000EAC41048614FF08050C863B4
:1059100088630846806940F0807088610846406B63
:10592000C0F387404FEA00240846C06940F0807009
:10593000C8610846806940F0807088610846406B05
:10594000C0F3874040EA04047E4B1B78B3EBD422BB
:1059500001D4134600E05342DFF8DCC19CF800C0DC
:10596000634531DA784B1B78C4F3451CB3EB0C016B
:1059700001D40B4600E04B42DFF8BCC19CF800C0EC
:105980004FEA4C0C63451FDA04F01F03DFF8BCC17B
:105990009CF800C0BCEB030001D4034600E0434286
:1059A000DFF894C19CF800C063450DDA634800EB52
:1059B000461030F8150000F10100604901EB461176
:1059C00021F815004FF47844E0B25D4948654FF482
:1059D000FF0000EAC41048614FF08050C86388633C
:1059E0000846806940F0807088610846406BC0F3CB
:1059F00087404FEA00240846C06940F08070C861C3
:105A00000846806940F0807088610846406BC0F3AA
:105A1000874040EA04044B4B1B78B3EBD42201D4FB
:105A2000134600E05342DFF810C19CF800C0634504
:105A300031DA454B1B78C4F3451CB3EB0C0101D4A0
:105A40000B4600E04B42DFF8F0C09CF800C04FEA84
:105A50004C0C63451FDA04F01F03DFF8F0C09CF81C
:105A600000C0BCEB030001D4034600E04342DFF872
:105A7000C8C09CF800C063450DDA304800EB461002
:105A800030F8150000F101002C4901EB461121F816
:105A900015004FF47844E0B2294948654FF4FF00FF
:105AA00000EAC41048614FF08050C863886308461C
:105AB000806940F0807088610846406BC0F3874081
:105AC0004FEA00240846C06940F08070C86108466B
:105AD000806940F0807088610846406BC0F3874061
